:020000040800F2
:100000007067002059020008A57700080563000802
:10001000897500084B0700083998000800000000A7
:100020000000000000000000000000009D0100082A
:10003000812D000800000000F1010008198B000864
:1000400073020008730200087302000873020008BC
:1000500073020008730200087302000873020008AC
:10006000730200087302000873020008730200089C
:1000700073020008730200082127000831270008D6
:100080004127000851270008730200087302000886
:10009000730200087302000873020008730200086C
:1000A000730200087302000873020008730200085C
:1000B000730200087302000873020008730200084C
:1000C000730200087302000873020008730200083C
:1000D00073020008F19700081598000873020008E1
:1000E000CD2E000873020008730200080000000013
:1000F0000000000000000000000000000000000000
:100100000000000000000000000000007302000872
:100110007302000873020008518C00080000000000
:1001200073020008730200087302000873020008DB
:100130007302000800000000000000000000000042
:1001400073020008730200080000000000000000B5
:10015000000000000000000000000000000000009F
:100160000000000000000000730200087302000895
:100170007302000800000000000000000000000002
:100180000000000073020008DFF80CD000F0E2F974
:100190000048004779A50008706700202B4B1968BC
:1001A0000868B0E8F04F80F30988BFF36F8F4FF015
:1001B000000080F3118870470000000006480068C6
:1001C000006880F3088862B661B6BFF34F8FBFF353
:1001D0006F8F00DF00BF00BF08ED00E0DFF80C000C
:1001E000016841F470010160704700BF88ED00E0D4
:1001F000EFF30980BFF36F8F144B1A681EF0100FD6
:1002000008BF20ED108A20E9F04F106008B44FF0CD
:10021000500080F31188BFF34F8FBFF36F8F0BF047
:1002200041FB4FF0000080F3118808BC1968086892
:10023000B0E8F04F1EF0100F08BFB0EC108A80F34A
:100240000988BFF36F8F704700BF00BF38000020E0
:10025000EFF30580704700000648804706480047D6
:10026000FEE7FEE7FEE7FEE7FEE7FEE7FEE7FEE766
:10027000FEE7FEE7D58B000889010008202A04DB91
:10028000203A21FA02F00021704721FA02F3D0400F
:10029000C2F12002914008431946704740EA010329
:1002A0009B0703D009E008C9121F08C0042AFAD22C
:1002B00003E011F8013B00F8013B521EF9D27047F0
:1002C000D2B201E000F8012B491EFBD27047002298
:1002D000F6E710B513460A4604461946FFF7F0FF45
:1002E000204610BD2DE9FE4F81EA030404F00044CE
:1002F00021F0004100944FF0000B23F0004350EA3E
:1003000001045ED052EA03045BD0C3F30A54C1F384
:100310000A552C44A4F2F3340194A0FB0254C1F317
:10032000130141F48011C3F3130343F4801301FB61
:10033000024400FB034E840A970A44EA815447EAC8
:100340008357A4FB076802958D0A05FB07854FEAD2
:10035000932C04FB0C542705029D4FEA065847EAEC
:100360001637B5EB08056EEB070C870E920E47EAC1
:10037000811742EA8312A7FB0201B6EB0B0164EB83
:1003800000042B0D43EA0C335E1844EB1C50DA4694
:100390005146E7FB0201C5F313044FEA0B3343EA6E
:1003A00014534FEA0432019C43EA0603A4F10C04FF
:1003B0000294009CCDE900B400F07DF803B0BDE8E4
:1003C000F08F00200146F9E70EB5C10F80EAE0701A
:1003D0000844CA07002140F233438DE80E000A4664
:1003E0000B4600F068F803B000BD0EB540F2334193
:1003F00002910021CDE900110A460B4600F05BF89E
:1004000003B000BDC1F30A5210B5C1F3130140F2AD
:10041000FF3341F480119A4201DA002010BD40F20E
:1004200033439A42A2F2334203DC5242FFF726FFE3
:1004300010BD904010BD2DE9F05F054600209246AA
:100440009B4688460646814640241BE02846414696
:1004500047462246FFF712FF53465A46C01A9141BB
:1004600010D311461846224600F086F82D1A67EB85
:1004700001084F4622460120002100F07DF817EBCD
:1004800000094E41201EA4F10104DFDC484631463C
:100490002A464346BDE8F09F10B5141E73F10004D0
:1004A00008DA401C41F1000192185B411A4301D166
:1004B00020F0010010BD2DE9F04D92469B4611B190
:1004C000B1FA81F202E0B0FA80F22032904600F0F8
:1004D00053F804460F4640EA0A0041EA0B0153462E
:1004E0005A46084313D0114653EA010019D0C8F107
:1004F00040025046FFF7C2FE05460E46504659469A
:10050000424600F039F8084305D0012004E02046B7
:100510003946BDE8F08D0020054346EAE0762C43DD
:1005200037430A986305E40AA0EB08000022FD0A9D
:1005300044EA47540A3002D500200146E9E70105A4
:1005400010196941DDE9084500196941BDE8F04D20
:10055000A2E70000064C074D06E0E06840F001030A
:1005600094E8070098471034AC42F6D3FFF710FE2A
:100570004C0201086C020108202A04DB203A00FA30
:1005800002F1002070479140C2F1200320FA03F3EA
:1005900019439040704770B58C1810F8015B15F046
:1005A000070301D110F8013B2A1106D110F8012BE5
:1005B00003E010F8016B01F8016B5B1EF9D12B070A
:1005C00005D40023521E0DD401F8013BFAE710F8C0
:1005D000013BCB1A921C03E013F8015B01F8015BAD
:1005E000521EF9D5A142D8D3002070BD10B501220A
:1005F0009102074803F0A2FA01221102044803F015
:100600009DFA01225102024803F098FA10BD000041
:100610000004004870B505460E46002400224FF441
:1006200000713F4803F08AFA00224FF480613C4891
:1006300003F084FA00224FF48071394803F07EFA07
:1006400000BF0CE001225102354803F077FA002286
:100650004FF40071324803F071FA601CC4B2062CEA
:10066000F0DB05F0020028B1012291022C4803F0D2
:1006700065FA05E000224FF48061294803F05EFA34
:1006800001225102264803F059FA00224FF400716A
:10069000234803F053FA05F0010028B1012291022A
:1006A0001F4803F04BFA05E000224FF480611C481C
:1006B00003F044FA01225102194803F03FFA0022E4
:1006C0004FF40071164803F039FA00241FE006F4D5
:1006D000004028B101229102114803F02FFA05E0F1
:1006E00000224FF480610E4803F028FA01225102E3
:1006F0000B4803F023FA00224FF40071084803F07E
:100700001DFA4FF6FF7000EA4606601CC4B2102CBA
:10071000DDDB01221102024803F010FA70BD000077
:100720000004004870B504460D46E06A10B901F0B7
:1007300021FFE062AC60E06A01F0CBFF0646324682
:100740002946E06A01F089FF70BD00BFFEE70000A6
:1007500070B502460C46FF25FF2309E012F8010B95
:1007600080EA03010648405C80EA05030548455CD1
:10077000201EA4F10106B4B2F0D143EA052070BDF9
:10078000ACFD0008ACFE00082DE9F0412DED028B18
:1007900005460E461746B0EE408A1C46DDF820801E
:1007A0004146B0EE480A204602F0F7FA23463A46A0
:1007B0003146284600F03AF8BDEC028BBDE8F081E6
:1007C00070B52DED028B05460E46B0EE408A1446FC
:1007D0000421B0EE480A204602F0DFFA2346012247
:1007E0003146284600F022F8BDEC028B70BDFEB504
:1007F00006460F4614461D460020009001900290C8
:100800002A46694620460AF0CFFC6B46012239464B
:10081000304600F00BF8FEBD70B504460D46164696
:10082000E9B2E0B2324606F0DBFF70BD2DE9F041DF
:1008300005460F4690461C460DE023464246394683
:10084000284600F00FF8064620787F2801DDA41C1A
:1008500000E0641C354420780028EED1A8B2BDE841
:10086000F08100002DE9FC5F8046894692461E46D5
:100870001A480068846830787F2809DD30780002E3
:10088000318840EA2125284602F0A4FD054600E013
:10089000357800E0A4682088A84202DC6088A8427D
:1008A00002DAA0680028F5D12188691A606810F87A
:1008B00031700A48006890F801B0CDE9009A2288AA
:1008C000AA1A616801EBC20143465A464868394694
:1008D00009F05FFC3846BDE8FC9F00009000002056
:1008E00010B505F0B9FD10BD2DE9F84F0746884653
:1008F00015461E46DDE90A4900200090484600F0F2
:100900004DF8484602F01AFDC0B28DF80100305D86
:100910003844C0B28DF800002B199DF80000022267
:100920004146FFF79FFF0C9800F038F8281902F0B5
:1009300057FD824600EBDA704110601C305C325D7E
:10094000A0EB020B0BEBDB709DF8002002EB6000CC
:10095000401AC0B28DF800000C9802F0EFFC02467D
:1009600000EBD2709DF8013003EBD37108EB61010D
:10097000A1EB6000C0B28DF801002B199DF80110A9
:100980009DF800000322FFF76DFF484600F006F8CF
:10099000BDF800100846BDE8F88F00000149086066
:1009A000704700009000002070B500240025002052
:1009B00005F034FD00BF0CE0002506E000200649EC
:1009C00001EBC4114855681CC5B2802DF6DB601CD4
:1009D000C4B2082CF0DB70BD9C5A002010B588B062
:1009E0004FF496744FF6FF70009041F6FF6001904F
:1009F0000020029042F2204003900494059404F1F8
:100A0000C800069004F1C800079000236A46082138
:100A1000802009F045FB4FF6FF70009041F6FF3053
:100A200001900020029042F220400390049405942B
:100A300004F1C800069004F1C800079000236A463C
:100A40000821882009F02CFB4FF6FF700090C010A1
:100A500001900020029042F226600390A0000490D2
:100A600005904FF4AF600690079000236A46082176
:100A7000902009F015FB4FF6FF700090C010019018
:100A80000020029042F2266003904FF4E16004904F
:100A900005904FF4FA600690079000236A460821FB
:100AA000982009F0FDFA4FF6FF700090C0100190F9
:100AB0000020029042F22660039040F6C410049099
:100AC000059040F68C200690079000236A46082186
:100AD000A02009F0E5FA4FF6FF700090C0100190D9
:100AE0000020029042F22660039040F6B830049055
:100AF000059040F616500690079000236A4608219C
:100B0000A82009F0CDFA4FF6FF700090C0100190B8
:100B10000020029042F2266003904FF4FA70049095
:100B2000059040F28A200690079000236A4608212B
:100B3000B02009F0B5FA4FF6FF700090C010019098
:100B40000020029042F2266003904FF47A700490E5
:100B5000059040F27E400690079000236A460821E7
:100B6000B82009F09DFA4FF6FF700090C010019078
:100B70000020029042F2266003904FF4C860049077
:100B800005904FF4E1600690079000236A46082123
:100B9000C02009F085FA4FF6FF700090C010019058
:100BA0000020029042F22660039040F698000490E4
:100BB0000590E0000690079000236A460821C820AF
:100BC00009F06EFA4FF6FF700090C01001900020FF
:100BD000029042F2266003904FF448600490059022
:100BE00040F648500690079000236A460821D0201E
:100BF00009F056FA4FF6FF700090C01001900020E7
:100C0000029042F22660039041F268000490059041
:100C100041F230100690079000236A460821D82040
:100C200009F03EFA12202049086000230A460121FB
:100C3000184609F035FA08231B4A0221184607F026
:100C400031FA43F230201849886040F2FF10C86042
:100C500040F6320008610320486188610020C861C5
:100C600002230A460621184609F01AFA03200E4903
:100C7000486000230A1D0121084609F011FA0A48BC
:100C8000806840F480400849886002230A460121B8
:100C9000184609F005FA0823034A0221184607F00E
:100CA00001FA08B010BD00003C5A002000B5ADF5B7
:100CB000137DFA4AFAA1FAA001F0E8FBFD490860A9
:100CC000FD4809684862FD48FA4909688862FCA144
:100CD000FEA001F0C5FB9290F9A1FCA001F0C0FBC1
:100CE0009190F7A1F9A001F0BBFB9090F4A1F7A0BF
:100CF00001F0B6FB8F90F2A1F4A001F0B1FB8E9051
:100D0000EFA1F2A001F0ACFB8D90EDA1EFA001F0FE
:100D1000A7FB8C90EAA1EDA001F0A2FB8B90E8A1CB
:100D2000EAA001F09DFB8A90E5A1E8A001F098FB04
:100D30008990E3A1E5A001F093FB8890E0A1E3A0F6
:100D400001F08EFB8790DEA1E0A001F089FB869088
:100D5000DBA1DEA001F084FB8590D9A1DBA001F02E
:100D60007FFB8490D6A1D9A001F07AFB8390DAA111
:100D7000DBA001F075FB8290D7A1D9A001F070FB38
:100D80008190D5A1D6A001F06BFB8090D2A1D4A018
:100D900001F066FB7F90D0A1D1A001F061FB7E90B5
:100DA000CDA1CFA001F05CFB7D90CBA1CCA001F048
:100DB00057FB7C90C8A1CAA001F052FB7B90C6A152
:100DC000C7A001F04DFB7A90C3A1C5A001F048FB7C
:100DD0007990C1A1C2A001F043FB7890BEA1C0A050
:100DE00001F03EFB7790BCA1BDA001F039FB7690ED
:100DF000B9A1BBA001F034FB7590B7A1B8A001F078
:100E00002FFB7490B4A1B6A001F02AFB7390B2A19D
:100E1000B3A001F025FB7290AFA1B1A001F020FBBF
:100E20007190ADA1AEA001F01BFB7090AAA1ACA087
:100E300001F016FB6F90A8A1A9A001F011FB6E9024
:100E4000A5A1A7A001F00CFB6D90A3A1A4A001F0A7
:100E500007FB6C90A0A1A2A001F002FB6B909EA1E9
:100E60009FA001F0FDFA6A909BA19DA001F0F8FA05
:100E7000699099A19AA001F0F3FA689096A198A0C0
:100E800001F0EEFA679098A197A001F0B9FA97499E
:100E9000086097A196A001F0B3FA99490860084646
:100EA000016892480068FFF73DFC96488F49096841
:100EB000486295488D490968886294A197A001F01D
:100EC0009FFA669099A19CA001F09AFA65909EA164
:100ED000A1A001F095FA6490A3A1A6A001F090FA58
:100EE0006390A8A1AAA001F08BFA6290844892991D
:100EF0000068FFF717FC824866990068FFF712FC4C
:100F00007F4865990068FFF70DFC7D48649900688B
:100F1000FFF708FC7A4863990068FFF703FC7848FC
:100F200062990068FFF7FEFB9EA1A2A001F068FA9B
:100F30006190A4A1A7A001F063FA6090A9A1ADA05F
:100F400001F05EFA5F90B0A1B4A001F059FA5E9092
:100F5000B7A1B2A001F054FA5D9091996698FFF79D
:100F6000E1FB61996698FFF7DDFB60996698FFF7F2
:100F7000D9FB5F996698FFF7D5FB5E996698FFF7F6
:100F8000D1FB5D996698FFF7CDFBAEA1B2A001F051
:100F900037FA5C90B4480323B44AB5A10090B8A0D6
:100FA00001F0C8FA5B90B04820380223B94ABAA1D0
:100FB0000090BCA001F0BEFA5A9090996598FFF796
:100FC000B1FB5C996598FFF7ADFB5B996598FFF7FE
:100FD000A9FB5A996598FFF7A5FBB5496598416249
:100FE000B44965988162B4A1B7A001F009FA59909B
:100FF000BAA1BEA001F004FA58908F996498FFF747
:1010000091FB59996498FFF78DFB58996498FFF705
:1010100089FBBBA1BEA001F0F3F9579092482430A0
:101020000223BF4ABFA10090C1A001F063FA56900D
:101030008D4828300223C24AC2A10090C5A001F009
:1010400059FA559088481C300523C74AC7A100901B
:10105000CAA001F04FFA5490CC480A23CC4ACDA143
:101060000090CFA005F0E8FC5390C848401C062330
:10107000CE4ACFA10090D2A005F0DEFC52908E990E
:101080006398FFF74FFB57996398FFF74BFB56990F
:101090006398FFF747FB5599639895E1D4010020C9
:1010A000455849542046524F4D20494E54455246CA
:1010B00041434500D00100204D2F0008092F0008B2
:1010C00020CDCBB3F6B2CBB5A52000002045786982
:1010D00074204D656E75200020CDCBB3F620000046
:1010E000204578697420000020000000CC01002019
:1010F000204D61696E2053657474696E672000002D
:10110000C40100204D280008CD27000820B2E2C10C
:10111000BFB2CECAFDC9E8D6C32000002043654C4B
:1011200069616E6743616E536875200020CFD4CA31
:10113000BEC9E8D6C320000020446973706C617991
:10114000536574200000000020D0C5BAC5CAE4B3BE
:10115000F6C9E8D6C32000002058696E48616F5375
:10116000687543687520000020BFD8D6C6C9E8D688
:10117000C320000020436F6E74726F6C536574203F
:101180000000000020B3ACBCB6C8A8CFDE00000051
:10119000204368616F4A695175616E5869616E20BC
:1011A0000000000020D2C7B1EDCFB5CAFDC9E8D616
:1011B000C32000002059694269616F5869536875FE
:1011C0002000000020B2E2C1BFB5A5CEBBC9E8D661
:1011D000C32000002043654C69616E6744616E570F
:1011E0006569200020B2E2C1BFC1BFB3CCC9E8D657
:1011F000C32000002043654C69616E674C69616ED5
:101200006743656E6720000020C1F7C1BFB5F7D501
:10121000FBB2CECAFDC9E8D6C320000020546961E4
:101220006F5A68656E6743616E53687520000000F1
:1012300020C6E4CBFBB5F7D5FBB2CECAFDC9E8D6D4
:10124000C320000020CFD4CABEB7D6B1E6C2CAD1EF
:10125000A1D4F12000000000205265736F6C7574FA
:10126000696F6E2000000000045F002090020020E3
:1012700020C4ACC8CFBDE7C3E6D1A1D4F1200000A3
:101280002044656661756C74496E7465726661634D
:10129000652000009C02002020D3EFD1D4D1A1D43E
:1012A000F1200000204C616E6775616765200000C9
:1012B000718500088D75000820C2F6B3E5D0C5BA67
:1012C000C5CAE4B3F6312000204D616943686F6EF2
:1012D00067536875436875312000000020C2F6B37B
:1012E000E5D0C5BAC5CAE4B3F6322000204D616925
:1012F00043686F6E6753687543687532200000005D
:1013000020CAE4C8EBBFD8D6C6C9E8D6C3200000BF
:1013100020496E436F6E74726F6C536574200000C9
:10132000F402002020C1E3B5E3B5F7D5FB200000AF
:10133000205A65726F526573697A6520000000005B
:10134000FC02002020C0DBBBFDC1BFC7E5C1E3201C
:101350000000000020436C65617243756D756C611F
:101360006E747320000000000403002020C7FDB647
:10137000AFB7F9B6C8B5F7D5FB20000020517564AA
:101380006F6E67467564752000000000EC610020F8
:101390003003002020CDA8D1B6B5D8D6B7200000A4
:1013A0004D61696C41646472000000001803002004
:1013B00020CDA8D1B6B2A8CCD8C2CA200000000067
:1013C0002042617564200000FFF7ACF954996398DE
:1013D000FFF7A8F953996398FFF7A4F95299639816
:1013E000FFF7A0F9A4A1A9A001F00AF85190AAA1C1
:1013F000ADA001F005F85090AEA1B0A001F000F84A
:101400004F908D996298FFF78DF951996298FFF787
:1014100089F950996298FFF785F94F996298FFF71B
:1014200081F9A94AA9A1ADA001F000F84E90A64A01
:101430007032ADA1B1A000F0F9FF4D90A24A121D8B
:10144000B1A1B5A000F0F2FF4C909F4A0832B5A1BF
:10145000B8A000F0EBFF4B909B4A0C32B8A1BDA0A6
:1014600000F0E4FF4A90984A7432BDA1C1A000F098
:10147000DDFF49908C996198FFF754F94E99619876
:10148000FFF750F94D996198FFF74CF94C99619825
:10149000FFF748F94B996198FFF744F94A99619829
:1014A000FFF740F949996198FFF73CF98648783091
:1014B0000923B34AB3A10090B7A005F0BDFA489044
:1014C000814879300323B94AB9A10090BDA005F045
:1014D000B3FA47907C487A300923BF4ABFA10090F5
:1014E000C3A005F0A9FA469077487B300323C54A8C
:1014F000C5A10090C9A005F09FFA459072487C30C4
:101500000223CB4ACBA10090CEA005F095FA4490DF
:101510006D487D300323D04AD0A10090D3A005F0C0
:101520008BFA43908B996098FFF7FCF84899609884
:10153000FFF7F8F847996098FFF7F4F84699609834
:10154000FFF7F0F845996098FFF7ECF84499609838
:10155000FFF7E8F843996098FFF7E4F85A4A103229
:10156000C6A1CAA000F062FF4290574A1432CAA135
:10157000CDA000F05BFF4190534A1832CEA1D2A01B
:1015800000F054FF4090504A1C32D2A1D5A000F088
:101590004DFF3F904C4A2032D6A1DAA000F046FF22
:1015A0003E90494A2432DAA1DDA000F03FFF3D9091
:1015B000454A2832DEA1E2A000F038FF3C90424AC2
:1015C0002C32E2A1E5A000F031FF3B908A995F98B0
:1015D000FFF7A8F842995F98FFF7A4F841995F9840
:1015E000FFF7A0F840995F98FFF79CF83F995F9844
:1015F000FFF798F83E995F98FFF794F83D995F9848
:10160000FFF790F83C995F98FFF78CF83B995F984B
:10161000FFF788F82C487E300423D44AD4A10090E8
:10162000D8A005F009FA3A90274A3832DAA1DEA0AC
:1016300000F0FCFE3990244A3C3ADFA1E3A000F020
:10164000F5FE3890204A4432E6A1EBA000F0EEFE11
:1016500037901D4A4832EEA1F2A000F0E7FE369026
:10166000194A4C32F4A1F9A000F0E0FE3590164A78
:101670005032FBA1FFA007E220BFAABBFAC6F4B616
:10168000AF6C6F676FD1A1D4F1200000204C6F6761
:101690006F5365742000000020D3C3BBA7C3DCC216
:1016A000EBC9E8D6C32000002050617373576F72F6
:1016B0006420000020C6E4CBFB200000204F7468AB
:1016C00065727320000000006C61002020C1F7C12A
:1016D000BFCFB5CAFD4643200000000020537474FC
:1016E000696E67464320000020C1F7C1BFCEC2B675
:1016F000C8CFB5CAFD4654200000000020536574D1
:1017000074696E674654200020C3DCB6C8CFB5CAE2
:10171000FD4B3120000000002053657474696E6732
:101720004B31200020C3DCB6C8CFB5CAFD4B3220F8
:10173000000000002053657474696E674B3220000E
:1017400020C3DCB6C8CEC2B6C8CFB5CAFD4454204B
:10175000000000002053657474696E6744542000D3
:1017600020C3DCB6C8C1F7CBD9CFB5CAFD464420EB
:10177000000000002053657474696E6746442000C1
:10178000D801002020D6CAC1BFC1F7C1BFB2E2C193
:10179000BFB5A5CEBB200000205365745A4C4365ED
:1017A0004C69616E67556E6974732000FC010020FE
:1017B00020D6CAC1BFC1F7C1BFC0DBBCC6B5A5CE6C
:1017C000BB200000205365745A4C4C65694A69552A
:1017D0006E697473200000000802002020CCE5BB75
:1017E000FDC1F7C1BFB2E2C1BFB5A5CEBB200000AD
:1017F00020536574544A43654C69616E67556E6940
:10180000747320002C02002020CCE5BBFDC1F7C181
:10181000BFC0DBBCC6B5A5CEBB200000205365749D
:10182000544A4C65694A69556E697473200000001A
:101830003802002020C3DCB6C8B5A5CEBBC9E8D6A7
:10184000C32000002053657444656E736974795534
:101850006E697420000000004002002020CEC2B655
:10186000C8B5A5CEBBC9E8D6C32000002053657417
:1018700054656D70556E69747320000020D6CAC11E
:10188000BFC1F7C1BFC9CFCFDE20000020536574B0
:101890005A4C55706572200020D6CAC1BFC1F7C12D
:1018A000BFCFC2CFDE200000205365745A4C466C77
:1018B0006F6F72200000000020CCE5BBFDC1F7C1B6
:1018C000BFC9CFCFDE20000020536574544A557045
:1018D0006572200020CCE5BBFDC1F7C1BFCFC2CFF0
:1018E000DE20000020536574544A466C6F6F7220EE
:1018F0000000000020C3DCB6C8B2E2C1BFC9CFCF30
:10190000DE200000205365744D4455706572200040
:1019100020C3DCB6C8B2E2C1BFCFC2CFDE20000018
:10192000205365744D44466C6F6F722000000000B8
:1019300020CEC2B6C8B2E2C1BFC9CFCFDE20000000
:1019400020536574574455706572200020CEC2B68E
:10195000C8B2E2C1BFCFC2CFDE2000002053657401
:101960005744466C6F6F7220000000004C0200204C
:1019700020C1F7C1BFB2E2C1BFB7BDCFF2C9E8D63F
:10198000C3200000204C4C5365744D656173757223
:10199000654469722000000020D0A1D0C5BAC5C737
:1019A000D0B3FDD6B5200000204C6974746C654E30
:1019B000756D43757420000020C1F7C1BFB2E2C14C
:1019C000BFCFDFD0D4B5F7D5FB200000204C4C585A
:1019D00069616E58696E675469616F5A68656E67B0
:1019E0002000000020C1F7C1BFD7D4B6AFC1E3B516
:1019F000E3B5F7D5FB200000204C4C5A65726F41CF
:101A000075746F5469616F5A68656E6720000000D5
:101A100020C1F7C1BFB2E2C1BFD0B1C2CAB5F7D5CC
:101A2000FB2000004C4C5869654C765469616F5A34
:101A300068656E672000000020C1F7C1BFB2E2C137
:101A4000BFC1E3B5E3B5F7D5FB200000204C4C5AED
:101A500065726F5469616F5A68656E672000000097
:101A600020C1F7C1BFB2E2C1BFD7E8C4E1B5F7D525
:101A7000FB200000204C4C5A754E695469616F5A26
:101A800068656E672000000000F0D0FC3490DA4AF0
:101A9000DAA1DEA000F0CAFC339089995E98FEF7C7
:101AA00041FE39995E98FEF73DFE3A995E98FEF741
:101AB00039FE38995E98FEF735FE37995E98FEF745
:101AC00031FE36995E98FEF72DFE35995E98FEF749
:101AD00029FE34995E98FEF725FE33995E98FEF74D
:101AE00021FEC54A2032CDA1D1A000F09FFC32904A
:101AF000C14A2432D3A1D8A000F098FC3190BE4A4C
:101B00002832DAA1DEA000F091FC3090BA4A083207
:101B1000E0A1E5A000F08AFC2F90B74A2C32E6A1A4
:101B2000EAA000F083FC2E90B34A3032ECA1F1A081
:101B300000F07CFC2D90B04A3432F3A1F7A000F005
:101B400075FC2C90AC4A121FF9A1FEA000F06EFCAF
:101B50002B9088995D98FEF7E5FD32995D98FEF728
:101B6000E1FD31995D98FEF7DDFD30995D98FEF756
:101B7000D9FD2F995D98FEF7D5FD2E995D98FEF75A
:101B8000D1FD2D995D98FEF7CDFD2C995D98FEF75E
:101B9000C9FD2B995D98FEF7C5FDED480723ED4A79
:101BA000EDA10090F0A000F0C5FC2A90E848001DCF
:101BB0000723E84AF0A10090F3A000F0BBFC2990B5
:101BC000E34808300723E34AF2A10090F5A000F0B3
:101BD000B1FC2890DE480C300723DE4AF5A10090C6
:101BE000F8A000F0A7FC2790D94810300723D94A65
:101BF000F7A10090F9A000F09DFC269087995C98D1
:101C0000FEF790FD2A995C98FEF78CFD29995C9867
:101C1000FEF788FD28995C98FEF784FD27995C986B
:101C2000FEF780FD26995C98FEF77CFDC8482030C1
:101C30000423EE4AEEA10090F1A000F07BFC259079
:101C4000C34A1432F4A1F9A000F03AFC249086991A
:101C50005998FEF767FD25995998FEF763FD249979
:101C60005998FEF75FFDBA4824300423DF4AE0A10B
:101C70000090E3A000F05EFC23905F4A0C32EFA1DD
:101C8000F2A000F003FC2290B14A1832F3A1F6A0B2
:101C900000F016FC219085995898FEF743FD239992
:101CA0005898FEF73FFD22995898FEF73BFD219981
:101CB0005898FEF737FDA64830300223EE4AEFA1D0
:101CC0000090F2A000F036FC2090A14834300223AE
:101CD000F34AF4A10090F7A000F02CFC1F90849927
:101CE0005798FEF71FFD20995798FEF71BFD1F9987
:101CF0005798FEF717FD964A3C32AFF26461AFF297
:101D0000586000F0DDFB1E9083995098FEF70AFDA5
:101D10001E995098FEF706FD374A343AAFF25461E7
:101D2000E9A000F0B3FB1D90334A3C32AFF24861AA
:101D3000E8A000F0ABFB1C902F4A303AAFF23861BC
:101D4000E7A000F0A3FB1B902B4A2C3AAFF22C61CA
:101D5000E6A000F09BFB1A90274A283AAFF22061D8
:101D6000E5A000F093FB1990234A4032AFF21061D6
:101D7000E4A000F08BFB189082994E98FEF7D2FCFD
:101D800081994D98FEF7CEFC80994C98FEF7CAFCDD
:101D90007F994B98FEF7C6FC7E994A98FEF7C2FCE5
:101DA0007D994998FEF7BEFC1D994E98FEF7BAFC46
:101DB0001C994D98FEF7B6FC1B994C98FEF7B2FCA7
:101DC0001A994B98FEF7AEFC19994A98FEF7AAFCAF
:101DD00018994998FEF7A6FC074A243AAFF26451D5
:101DE000AFF2585000F052FB1790034A203AAFF27E
:101DF0005851AFF24C508BE1A061002020D1B9C105
:101E0000A6CFB5CAFDC9E8D6C32000002059614C51
:101E100069586953687553657420000020C3DCB6A7
:101E2000C8B2E2C1BFD0B1C2CAB5F7D5FB2000002D
:101E3000204D445869654C765469616F5A68656EE7
:101E40006720000020C3DCB6C8B2E2C1BFC1E3B561
:101E5000E3B5F7D5FB2000004D445A65726F546915
:101E6000616F5A68656E67200000000020C3DCB611
:101E7000C8B2E2C1BFD7E8C4E1B5F7D5FB20000086
:101E8000204D445A754E695469616F5A68656E6792
:101E90002000000020B2CEBFBCC3DCB6C8D6B5C996
:101EA000E8D6C32000000000204D4443616E4B6122
:101EB0006F5365742000000020CEC2B6C8B2E2C1E4
:101EC000BFD0B1C2CAB5F7D5FB2000002057445897
:101ED00069654C765469616F5A68656E67200000C9
:101EE00020CEC2B6C8B2E2C1BFC1E3B5E3B5F7D5F3
:101EF000FB20000057445A65726F5469616F5A683D
:101F0000656E67200000000020CEC2B6C8B2E2C1F4
:101F1000BFD7E8C4E1B5F7D5FB2000002057445AED
:101F2000754E695469616F5A68656E6720000000DC
:101F300020B3A3D3C3CEC2B6C8D6B5C9E8D6C32092
:101F400000000000205744436F6D5365742000006B
:101F5000E85E00207402002020CBB2CAB1D6CAC10C
:101F6000BFC1F7C1BF20000020496E7374616E7459
:101F70005A4C4C4C2000000020C0DBBCC6D6CAC165
:101F8000BFC1F7C1BF2000002041646455705A4CA6
:101F90004C4C200020CBB2CAB1CCE5BBFDC1F7C18F
:101FA000BF20000020496E7374616E74544A4C4C1B
:101FB0002000000020C0DBBCC6CCE5BBFDC1F7C1E2
:101FC000BF200000204164645570544A4C4C2000EE
:101FD00020BDE9D6CAC3DCB6C8200000204D656428
:101FE00069756D44656E736974792000A4020020E0
:101FF00020CAE4B3F6D0C5BAC5D1A1D4F1200000FF
:102000002053656C6563744F75747075745369679C
:102010006E616C200000000020CAE4B3F6C6B5C2B1
:10202000CAC9CFCFDEC9E8D6C320000020536574EB
:1020300046726555706572200000000020C2F6B33C
:10204000E5B5B1C1BFC9E8D6C3200000205365740F
:1020500050756C65734571752000000020C2F6BF95
:10206000EDC9E8D6C32000002053657450756C6537
:1020700073576974682000005803002020D1A1D450
:10208000F1BFD8D6C6B2CECAFD2000002053656C81
:10209000656374436F6E74726F6C506172200000E0
:1020A0006003002020D3D0D0A7BFD8D6C6D0CECAD8
:1020B000BD2000002056616C6964436F6E74726FBE
:1020C0006C466F726D20000020536574696E674620
:1020D0004320000020536574696E67465420000059
:1020E00020536574696E674B31200000205365747E
:1020F000696E674B3220000020536574696E674437
:102100005420000020536574696E67464420000027
:1021100000F0BCF91690B94AAFF66401AFF658006A
:1021200000F0B4F91590B54A121DAFF65801AFF69C
:102130004C0000F0ABF91490B04A0832AFF64C01F5
:10214000AFF6400000F0A2F91390AC4A0C32AFF6A3
:102150004001AFF6340000F099F91290A74A10320E
:10216000AFF63401AFF6280000F090F91190A34AC1
:102170001432AFF62801AFF61C0000F087F910907A
:102180007C994298FEF7CEFA7B994198FEF7CAFAFD
:102190007A994098FEF7C6FA79993F98FEF7C2FA05
:1021A00078993E98FEF7BEFA77993D98FEF7BAFA0D
:1021B00076993C98FEF7B6FA75993B98FEF7B2FA15
:1021C00017994298FEF7AEFA16994198FEF7AAFAC7
:1021D00015994098FEF7A6FA14993F98FEF7A2FACF
:1021E00013993E98FEF79EFA12993D98FEF79AFAD7
:1021F00011993C98FEF796FA10993B98FEF792FADF
:102200007E4A2032AFF67001AFF6640000F03EF96E
:102210000F907A4A543AAFF66001AFF6500000F0E2
:1022200035F90E90754A2C32AFF64801AFF63800FA
:1022300000F02CF90D90714A3032AFF62C01AFF658
:102240001C0000F023F90C906C4A3432AFF61801F0
:10225000AFF6080000F01AF90B90684A3832AFF672
:102260000001AFF2F07000F011F90A90634A1C32DD
:10227000AFF27841AFF26C4000F008F90990749920
:102280003998FEF74FFA73993898FEF74BFA72991E
:102290004098FEF747FA71993F98FEF743FA709914
:1022A0003E98FEF73FFA6F993D98FEF73BFA6E991C
:1022B0003C98FEF737FA0F993998FEF733FA0E99E2
:1022C0003898FEF72FFA0D993798FEF72BFA0C99EC
:1022D0003698FEF727FA0B993598FEF723FA0A99F4
:1022E0003498FEF71FFA09993398FEF71BFA434A10
:1022F0003C32AFF2D841AFF2C84000F0C7F80890C6
:102300003E4A4032AFF2C441AFF2B44000F0BEF8F2
:1023100007903A4A4432AFF2AC41AFF29C4000F031
:10232000B5F80690354A2432AFF29841AFF28840B2
:1023300000F0ACF80590314A4832AFF28441AFF278
:10234000744000F0A3F804902C4A4C32AFF2704174
:10235000AFF2604000F09AF80390284A5032AFF292
:102360005841AFF2484000F091F80290234A1832E9
:10237000AFF24441AFF2344000F088F801906D991B
:102380003298FEF7CFF96C993198FEF7CBF96B993B
:102390003098FEF7C7F96A992E98FEF7C3F9699944
:1023A0002D98FEF7BFF968992C98FEF7BBF967994D
:1023B0002B98FEF7B7F908993298FEF7B3F9079909
:1023C0003198FEF7AFF906993098FEF7ABF9059909
:1023D0002F98FEF7A7F904992E98FEF7A3F9039911
:1023E0002D98FEF79FF902992C98FEF79BF9019919
:1023F0002B98FEF797F90DF5137D00BD8461002041
:1024000070B505460E46302008F00AFE044600204E
:102410002076E5612662E062024860620248A062BE
:10242000204670BD718500088D7500082DE9F041CA
:1024300005460E461746342008F0F2FD04460020FB
:102440002076E56126622763034860620348A06244
:102450002046BDE8F0810000698800088D750008FD
:1024600070B505460E46382008F0DAFD0446012016
:102470002076E5612662034860620348A062204638
:1024800070BD0000ED2F00088D7500082DE9F041AA
:1024900005460E461746382008F0C2FD04460120C6
:1024A0002076E5612662E762034860620348A06225
:1024B0002046BDE8F0810000C565000865A0000861
:1024C0002DE9F04105460E461746382008F0A8FDD4
:1024D000044601202076E5612662E76203486062D7
:1024E0000348A0622046BDE8F0810000719A000810
:1024F00065A000082DE9F04705460E4617469846A8
:10250000DDF82090382008F08BFD0446012020766D
:10251000E5612662054860620548A062276384F889
:102520003480C4F82C902046BDE8F087899E0008CE
:10253000459E00082DE9F04705460E461746984689
:10254000DDF82090382008F06BFD0446012020764D
:10255000E5612662054860620548A062276384F849
:102560003480C4F82C902046BDE8F0878598000898
:10257000459E000810B5182008F052FD04462CB105
:1025800000202061606120606060E060204610BD36
:1025900001460A46002002B1D068704701460A464B
:1025A00050697047F0B503460A46194600240026D4
:1025B000C1B1002A16DB0869904213DD08460025E8
:1025C00000BF01E00068761C9642FBDB04682568CA
:1025D00005606860CF68A74200D1CD600F697F1E9B
:1025E0000F6100BF2046F0BD2DE9F0430546884647
:1025F0002C464FF000090026B4B1274600BF07E083
:102600003868404502D1D7F8009004E03F68761C56
:102610002069B042F4DC00BFB9F1000F03D03146AD
:102620002046FFF7BFFF00BF4846BDE8F08370B506
:1026300002461346002500246BB100290BDB186904
:10264000884208DD184600BF01E00068641C8C4227
:10265000FBDB056800BF284670BDF0B50346144695
:102660001A4622B1002C02DB09B1012000E0002053
:10267000074600255FB31046002600BF01E0006852
:102680006D1CA54204DAD0F800C0BCF1000FF6D1F1
:10269000066801600E600EB1716004E0D2F800C0FF
:1026A000C1F800C051604860D2F810C0BCF1000F02
:1026B00000D1D160904203D14FF0000CC1F804C0AA
:1026C000D2F810C00CF1010CC2F810C000BF38469F
:1026D000F0BD01460A464FF0FF3002B11069704765
:1026E00030B502461146002071B1CB6863B1C868AD
:1026F0000368CB604B695B1C4B61D1E9044393FBDE
:10270000F4F504FB15334B6130BD02461146002041
:1027100021B10B68CB60C86800234B617047000093
:1027200010B5024800F026FF10BD00009006002002
:1027300010B5024800F01EFF10BD0000D4060020B6
:1027400010B5024800F016FF10BD00001807002069
:1027500010B5024800F00EFF10BD00005C0700201D
:102760000D4A016891420BD20C4A0168891A142261
:10277000B1FBF2F18900016408490839C1630AE03C
:10278000054A0168891A1422B1FBF2F1890001643B
:1027900001490839C163704708040240080002403B
:1027A00030B590F840500124AC40C56B6C600468B3
:1027B00063604468102C04D10468A2600468E1607E
:1027C00003E00468A1600468E26030BD1B49097839
:1027D000002932D019490978012904D0022911D0E1
:1027E000032926D11CE01649097819B90221144A97
:1027F000117004E012490978491E114A1170002134
:10280000017016E00E490A780978491C0C4B1970C2
:10281000022A02DB00211A4611700021017008E033
:102820000121084A117000210170074909684160BF
:1028300000BF00BF0021014A1170704758010020FD
:102840009801002074010020C401002030B52DED56
:10285000028B87B005460024142102A8FDF737FD3E
:10286000287800287DD101202870FA48FEF796F8D4
:102870000020F949087005F06FFEF848007820B193
:10288000012879D002286ED1E8E0FEF78DF8287A89
:1028900060B9F3A3012211460220FDF7C7FFF3A39D
:1028A000012220210220FDF7C1FF0BE0F1A301224C
:1028B00002210846FDF7BAFFF1A3012232210220CE
:1028C000FDF7B4FFF04890F8C000F04951F820300F
:1028D000012203215620FDF7A9FFEB48343004F014
:1028E00058FBEB4880ED000AEA48007B02AB009001
:1028F000E74890ED000A012213212C20FDF744FF48
:10290000E5A3012224211046FDF790FFDE48383070
:1029100004F03FFBE14880ED000ADE48007C02AB9A
:102920000090DE4890ED000A012223211920FDF7D6
:102930002BFFD54890F8C400D94951F82030012226
:1029400032215620FDF772FFCF48303004F021FBD2
:10295000D44880ED000ACF48007F02AB0090D148F8
:1029600002E013E108E0DCE090ED000A01223221F0
:102970001E20FDF709FFD5E0FEF716F8287A60B9AA
:10298000B7A3012211460220FDF750FFB7A3012291
:1029900020210220FDF74AFF0BE0C3A30122022100
:1029A0000846FDF743FFC3A3012232210220FDF7B1
:1029B0003DFFB54890F8C200C04951F820300122CF
:1029C00003215920FDF732FFAF483C3004F0E1FA13
:1029D000BB4880ED000AAF48007D02AB0090B848CC
:1029E00090ED000A012213212C20FDF7CDFEAAA3B1
:1029F000012224211046FDF719FFA348403004F0BE
:102A0000C8FAB04880ED000AA248007E02AB0090F0
:102A1000AC4890ED000A012223211920FDF7B4FEF5
:102A2000994890F8C500A84951F820300122322178
:102A30005920FDF7FBFE94482C3004F0AAFAA34875
:102A400080ED000A012002AB0090A04890ED000A42
:102A5000012232213A20FDF797FE63E0FDF7A4FF43
:102A60009BA3012203211046FDF7E0FE8648243097
:102A700004F08FFA974880ED000A042002AB009022
:102A8000944890ED000A012203211320FDF77CFEFB
:102A900091A3012214211046FDF7C8FE7A48283080
:102AA00004F077FA8D4880ED000A042002AB009014
:102AB0008A4890ED000A012213210846FDF764FEC2
:102AC00087A3012224211046FDF7B0FE6E48203076
:102AD00004F05FFA834880ED000A042002AB009006
:102AE000804890ED000A012223211320FDF74CFEBF
:102AF0007DA3012232211046FDF798FE62481C306A
:102B000004F047FA794880ED000A042002AB0090F7
:102B1000764890ED000A012233211320FDF734FEA0
:102B200000E000BF00BF00240BE00122214600208E
:102B3000FDF772FE012221467F20FDF76DFE601C2D
:102B4000C4B2402CF1DB01241AE00122002120460E
:102B5000FDF762FE01220F212046FDF75DFE0122F6
:102B60001F212046FDF758FE01222F212046FDF7A8
:102B700053FE01223F212046FDF74EFE601CC4B2E9
:102B80007F2CE2DB012005F0E7FCEBE03348007826
:102B900020B1012830D002285BD1A9E03A48343076
:102BA00004F0F7F9B0EE408A3A48007B02AB384AAD
:102BB000132100902C2005F0C0FA3348383004F07F
:102BC000E8F9B0EE408A3348007C02AB334A232157
:102BD0000090192005F0B1FA2B48303004F0D9F9F3
:102BE000B0EE408A2B48007F02AB2E4A3221009083
:102BF0001E2005F0A2FAB4E023483C3004F0C9F9E5
:102C0000B0EE408A2348007D02AB2D4A132100908C
:102C10002C2005F092FA1C48403004F0BAF9B0EECE
:102C2000408A1C48007E02AB264A232100901920CE
:102C300005F083FA14482C3004F0ABF9B0EE408A6A
:102C4000022002AB214A322100903A2005F075FAA9
:102C500087E085E0FCF00008740100209801002066
:102C60004D61737320466C6F7700000044656E738E
:102C700069747900D6CAC1BFC1F7C1BF3A0000006C
:102C8000C3DCB6C80000000024610020D801002089
:102C90009C010020DC5E0020A6B23A00A0010020CA
:102CA00038020020A4010020CCE5BBFDC1F7C1BF64
:102CB0003A000000CEC2B6C83A0000000802002068
:102CC000A8010020AC01002040020020B00100203B
:102CD00046303A00B401002044503A00BC010020C4
:102CE0005A313A00C00100205A323A00B80100209F
:102CF0001E4804F04EF9B0EE408A042002AB1C4A94
:102D000003210090132005F018FA1848001D04F064
:102D100040F9B0EE408A042002AB164A132100901D
:102D2000084605F00AFA1148001F04F032F9B0EE27
:102D3000408A042002AB104A23210090132005F0A2
:102D4000FCF90A48083804F024F9B0EE408A04205F
:102D500002AB0A4A33210090132005F0EEF900E09F
:102D600000BF00BF07B0BDEC028B30BD4861002042
:102D7000B4010020BC010020C0010020B8010020E7
:102D8000704770B504460D46E06A00B970BD29462B
:102D9000E06AFFF729FC00BFF8E730B50446F0EE23
:102DA000401A0D46F5EEC01AF1EE10FA06DD29467E
:102DB000B0EE610A204600F018F815E0F5EEC01AF2
:102DC000F1EE10FA0CD22D202070B1EE610AF0EE77
:102DD000401A2946B0EE610A601C00F006F803E0D4
:102DE000302020700020607030BDF0B503460D46E5
:102DF0000021002000220124002600BF04E004EB93
:102E000084077C004F1CF9B2A942F8DB204604E09D
:102E1000771CFEB20A27B0FBF7F00A28F8D2FCEEC6
:102E2000C00A10EE902A012005E000EB8007780030
:102E30000A27B2FBF7F20A2AF7D2FCEEC00A10EE1C
:102E4000902A00210CE0B2FBF0F730375F54B2FB60
:102E5000F0F700FB17224F1CF9B20A27B0FBF7F07E
:102E60000028F0D1FCEEC00A10EE902A00BF00EE60
:102E7000902AF8EE600A30EE601A00EE904AF8EE02
:102E8000600A61EE200AFCEEE00A10EE902A20466D
:102E9000CAB12E275F544F1CF9B20A27B0FBF7F0D6
:102EA0000CE0B2FBF0F730375F54B2FBF0F700FBF9
:102EB00017224F1CF9B20A27B0FBF7F00028F0D117
:102EC00000275F5401E000275F54F0BD10B54FF4B8
:102ED000005000F03FFD10BD10B5044600202070EA
:102EE0006168C86AFFF754FB606010BD10B5044606
:102EF00001A007F02FF910BD4572726F4F75745421
:102F0000696D650D0A00000010B504460C48007894
:102F1000A8B1FDF749FD204605F006F909496068AA
:102F20000968FFF72EFF002020700548007802286E
:102F300002D105480068606000200149087010BD9A
:102F400058010020D0010020CC01002010B504461B
:102F50002078002822D101202070207A90B910A377
:102F600001220A210220FDF761FC12A301221E2189
:102F70002820FDF75BFC13A301222E212820FDF75A
:102F800055FC0BE006A301220A210220FDF74EFCAE
:102F900011A301221E211420FDF748FC10BD0000E2
:102FA000455849542046524F4D20494E54455246AB
:102FB00041434500434F4E4649524D4154494F4EBF
:102FC00000000000505245535320425554544F4E78
:102FD00028A1FD2900000000C8B7C8CFCDCBB3F6AB
:102FE000B0B4B0B4BCFC28A1FD29000010B5044663
:102FF000FDF7DAFC00202070204605F095F8204609
:1030000005F092F810BD000000200749C86107488C
:10301000006940F00400054908610846006940F075
:103020004000086170470000A00700200020024017
:103030000021074AD1610749096941F00201054AA7
:10304000116111464861096941F040011161704701
:10305000A0070020002002400022054BDA61054A4B
:10306000126942F00102034B1A61018070470000AF
:10307000A00700200020024000200F49C96801F08D
:103080001001102907D10D49C96941F002010B4A0D
:10309000D16140F010000849C96801F00401042919
:1030A00007D10649C96941F00101044AD16140F0E4
:1030B00004000149C860704700200240A0070020BA
:1030C00070B5044600F040FD05460CE0601C38B1C8
:1030D00024B100F039FD401BA04201D9032070BD8E
:1030E000052008F033FA1048C06800F001000028FD
:1030F000ECD10D48C06800F02000202801D10A4919
:10310000C8600948C06800F01000102805D00648C3
:10311000C06800F00400042803D1FFF7ADFF0120D0
:10312000DDE70020DBE700000020024038B5044660
:103130001A4800901A4805F05FF90099884225D096
:1031400001226946164805F05AF902206063012001
:10315000A06320720020A06120616061E060E061F6
:1031600042F210702062322060620020A062E062B1
:103170002063E06384F84000606440F2D240A064C1
:10318000132204F10801074805F039F9132204F16C
:103190000801044805F020F938BD00005152EEEE58
:1031A000001003080000030810B50223084A01219B
:1031B000184604F077FF0648806840F480400449D0
:1031C000886002230A460121184606F069FF10BDF7
:1031D0003C5A00200246002101E0481C81B2084808
:1031E00030F81100904202D0B1F5D57FF5D3B1F59A
:1031F000D57F01D320207047024830F81100FAE74C
:1032000058FA000802FC0008FDF750FD00203E4976
:1032100008703E48006848603D48FDF7BFFB3DA38D
:10322000012202210A20FDF701FB3DA30122122108
:103230002820FDF7FBFA002204213C4800F07EFC28
:1032400000224FF400614FF0904000F077FC002224
:103250004FF480514FF0904000F070FC002280212C
:103260004FF0904000F06AFC002220214FF0904087
:1032700000F064FC2448FFF759FF2DA3012222210E
:103280000A20FDF7D3FA2048D0ED0D0AF8EE600AC7
:10329000B0EE600A284A32212820FDF791FA4FF457
:1032A000FA6008F053F9012280214FF0904000F0BD
:1032B00045FC012220214FF0904000F03FFC01220C
:1032C00004211A4800F03AFC0122D1024FF090404C
:1032D00000F034FC012211034FF0904000F02EFC6E
:1032E0000949486B05F0F2F80CE007484068816A2C
:1032F0000548884704484068416A03488847642075
:1033000008F024F9F1E70000DC5E0020CC01002089
:10331000FCF0000856657273696F6E3A0000000099
:10332000562E32303138313231330000000400483B
:10333000426175643A000000D05E00200146487882
:103340007047802070470246137A01F11C0050F844
:103350002300704730B5044600250AE0204600F0FF
:103360003FF8284485B220787F2801DDA41C00E0C6
:10337000641C20780028F1D1284630BD0146002089
:1033800007E0421C90B20A787F2A01DD891C00E028
:10339000491C0A78002AF4D17047F0B504460D465E
:1033A00000270026002028700FE0701CC6B22046BF
:1033B00000F016F8A855A85D384487B2AF552078BC
:1033C0007F2801DDA41C00E0641C20780028ECD1DB
:1033D0003846F0BD00B503461846FFF7FBFE00BDBA
:1033E000F0B5054611480068846828787F2809DD13
:1033F00028780002298840EA21263046FFF7EAFFB4
:10340000064600E02E7800E0A4682088B04202DC86
:103410006088B04202DAA0680028F5D12188711ACC
:10342000606810F831703846F0BD00009000002050
:1034300070B504460D4635B1012D16D0022D27D0AA
:10344000032D4BD137E0264803F0A3FD84ED000A9D
:103450002348001F03F09DFD84ED010A2048283811
:1034600003F097FD84ED020A38E01D48083003F0B0
:1034700090FD84ED000A1A48001D03F08AFD84EDDA
:10348000010A1748203803F084FD84ED020A25E084
:103490001348103003F07DFD84ED000A10480C3015
:1034A00003F077FD84ED010A0D482C3803F071FD1F
:1034B00084ED020A12E00A48183003F06AFD84ED38
:1034C000000A0748143003F064FD84ED010A044843
:1034D000303803F05EFD84ED020A00BF00BF70BD0E
:1034E0008061002001460868006820F00E000A682C
:1034F00010600868006820F001000A68106091F808
:10350000402001209040CA6B5060012081F82100CA
:1035100000BF002081F8200000BF704770B504464E
:10352000002594F82100022803D00420A06301257F
:103530001EE02068006820F00E0021680860206806
:10354000006820F001002168086094F84010012014
:103550008840E16B4860012084F8210000BF002012
:1035600084F8200000BF606B10B12046616B884773
:10357000284670BD70B50446E06B05682068066893
:1035800094F84010042088402840D0B106F0040090
:10359000B8B12068006800F0200028B920680068F1
:1035A00020F004002168086094F84010042088404E
:1035B000E16B4860E06A00284ED02046E16A884707
:1035C0004AE094F8401002208840284008B306F0F2
:1035D0000200F0B12068006800F0200040B92068C7
:1035E000006820F00A0021680860012084F82100AA
:1035F00094F8401002208840E16B486000BF002032
:1036000084F8200000BFA06A30B32046A16A884732
:1036100022E094F84010082088402840E0B106F0ED
:103620000800C8B12068006820F00E00216808601A
:1036300094F8401001208840E16B48600120A063AD
:1036400084F8210000BF002084F8200000BF206B18
:1036500010B12046216B884770BD70B50446002527
:103660000CB9012070BD022084F821002068056893
:1036700043F6F0708543D4E901010843E16808434B
:103680002169084361690843A1690843E169084366
:103690000543206805602046FFF762F80020A0631C
:1036A000012084F82100002084F8200000BFD9E721
:1036B0002DE9F04104460D4616461F464FF000081E
:1036C00000BF94F82000012802D10220BDE8F0815B
:1036D000012084F8200000BF94F8210001282CD19B
:1036E000022084F821000020A0632068006820F0F8
:1036F0000100216808603B46324629462046FFF714
:103700004FF8E06A30B12068006840F00E00216890
:1037100008600BE02068006840F00A00216808603B
:103720002068006820F004002168086020680068B4
:1037300040F001002168086006E000BF002084F826
:10374000200000BF4FF002084046BFE770B50446B6
:1037500000F0FAF906462546681C10B104480078C6
:10376000054400BF00F0F0F9801BA842FAD370BDF9
:103770000C0000202DE9F04104460E4601270025EB
:1037800000BF2648007E012802D10220BDE8F0815A
:1037900001202249087600BF2068012812D14CF28E
:1037A0005030FFF78DFC88BBFFF72EFC4CF25030F9
:1037B000FFF786FC07461A48006920F00400184904
:1037C000086123E04CF25030FFF77AFCF0B94FF07B
:1037D000FF303060656812E02846FFF729FC4CF2A4
:1037E0005030FFF76DFC07460D48006920F00200DD
:1037F0000B4908610FB1356007E005F50065D4E9B4
:10380000011001EBC020A842E6D800BF00BF002095
:103810000249087600BF3846B8E70000A00700203C
:10382000002002400348006940F08000014908611F
:1038300000207047002002402DE9FE4F05468B46D0
:1038400017469846012600240020029000BF244815
:10385000007E012802D10220BDE8FE8F0120204910
:10386000087600BF4CF25030FFF72AFC064686BBB4
:10387000012D02D10120029006E0022D02D102208A
:10388000029001E00420029000241EE02201B946CB
:10389000C24648465146FCF7F1FC80B20190022036
:1038A00000FB04B000900199FFF7D6FB4CF25030BA
:1038B000FFF706FC06460B48006920F001000949A5
:1038C000086106B104E0601CC4B202988442DDDBEA
:1038D00000BF00BF00200249087600BF3046BBE7AA
:1038E000A00700200020024000200849096901F0DB
:1038F000800151B10649054A51600649516011469F
:10390000096901F0800101B10120704700200240E7
:1039100023016745AB89EFCD10B504460020094966
:10392000086009490948006807F044FE0648006835
:1039300038B14FF0805006490860BFF34F8FBFF396
:103940006F8F10BD780100206C0100205C01002009
:1039500004ED00E010B5044604480068204020B1A2
:10396000024804602046FFF7D7FF10BD1404014051
:1039700078B50346002200240020CBE001269640C3
:103980000D6805EA0604002C72D04D68022D02D0A5
:103990004D68122D13D1D60803F1200555F82600E5
:1039A0005507EE0E0F25B540A8435607F60E0D69D4
:1039B000B5402843D60803F1200545F826001868CD
:1039C00056000325B540A8430D7905F003055600C0
:1039D000B540284318604D68012D08D04D68022D70
:1039E00005D04D68112D02D04D68122D13D1986865
:1039F00056000325B540A8435600CD68B54028437E
:103A00009860586801259540A8430D79C5F30015C5
:103A1000954028435860D86856000325B540A84310
:103A200056008D68B5402843D8604D6805F0805534
:103A3000B5F1805F6DD100BF394DAD6945F001052D
:103A4000374EB5613546AD6905F00105009500BFFB
:103A500000BF4FEAB635960855F8260095072E0F99
:103A60000F25B540A843B3F1904F02D1002515E0D2
:103A70004FE02C4DAB4201D101250FE02A4DAB4266
:103A800001D102250AE0294DAB4201D1032505E011
:103A9000274DAB4201D1042500E005259607360FDE
:103AA000B5402843234D960845F82600224D286846
:103AB000A0434D6805F48035B5F5803F00D1204323
:103AC0001D4D28602D1D2868A0434D6805F4003564
:103AD000B5F5003F00D12043174D2D1D28602D1D49
:103AE0002868A0434D6805F48015B5F5801F00D106
:103AF0002043114D083528602D1D2868A0434D68CE
:103B000005F40015B5F5001F00D120430A4D0C3512
:103B10002860521C0D68D540002D7FF42FAF78BD72
:103B2000001002400004004800080048000C004853
:103B30000010004808000140000401400AB1816102
:103B400000E0816270470000014800687047000093
:103B5000040000200348006803490978084401492B
:103B600008607047040000200C00002010B50848D1
:103B7000006840F0100006490860032000F0C4F817
:103B80000F2000F007F800F02BF8002010BD000017
:103B90000020024070B504460E4800784FF47A7158
:103BA000B1FBF0F00C490968B1FBF0F5284601F0D3
:103BB00094FC08B1012070BD102C07D200222146D0
:103BC000501E00F062F80548046001E00120F2E7B1
:103BD0000020F0E70C00002010000020080000206A
:103BE00008B500BF2148806940F001001F49886185
:103BF0000846806900F00100009000BF00BF00BFD0
:103C00000846C06940F08050C8610846C06900F0AD
:103C10008050009000BF00BF032000F075F8002224
:103C200011466FF00B0000F030F8002211466FF0E3
:103C30000A0000F02AF8002211466FF0090000F097
:103C400024F800221146501F00F01FF800221146F0
:103C5000101F00F01AF800220F21901E00F015F836
:103C600000220F21501E00F010F808BD0010024085
:103C700000BF00F01F02012191404209920002F1B1
:103C8000E022C2F8001100BF70472DE9F05F8046C6
:103C90000D461646002703F087FD074639462A469B
:103CA000334601F00700C0F1070ABAF1040F02D948
:103CB0004FF0040A01E0C0F1070AD14600F1040AFE
:103CC000BAF1070F02D24FF0000A01E0A0F1030A97
:103CD000D4464FF0010A0AFA09FAAAF1010A0AEADF
:103CE000020A0AFA0CFA4FF0010B0BFA0CFBABF1CB
:103CF000010B0BEA030B4AEA0B042146404603F092
:103D00005BFDBDE8F09F000000BF00F00702064B1E
:103D100019684FF6FF031940044B0B4343EA022195
:103D2000014B196000BF70470CED00E00000FA0580
:103D3000F8B5044600260025206800F48030B0F570
:103D4000803F74D10027A248C06900F0805070B94C
:103D500000BF9F48C06940F080509D49C861084637
:103D6000C06900F08050009000BF00BF0127994853
:103D7000006800F48070B0B99648006840F4807024
:103D800094490860FFF7E0FE064606E0FFF7DCFE18
:103D9000801B642801D90320F8BD8E48006800F418
:103DA00080700028F2D08A48006A00F44075002D27
:103DB0006BD0A08800F44070A84266D08448006AA6
:103DC00020F440750120010491FAA1F1B1FA81F1CA
:103DD000814A02EB8101C1F800040021000490FA3D
:103DE000A0F0B0FA80F002EB8000C0F80014784830
:103DF000056205F00100B8B3FFF7A6FE064608E02D
:103E0000FFF7A2FE801B41F28831884201D90320CE
:103E1000C2E74020022191FAA1F1B1FA81F10843F1
:103E20000121B1EB601F03D1694800681FE03CE04D
:103E30004020022191FAA1F1B1FA81F10843022157
:103E4000B1EB601F02D16248006A10E040200221FD
:103E500091FAA1F1B1FA81F108430421B1EB601F9D
:103E600003D15B48406802E00FE05948406A4021B6
:103E7000022292FAA2F2B2FA82F2114301F01F0278
:103E80000121914008400028BAD05148006A20F42E
:103E90004070616808434E490862012F04D108460A
:103EA000C06920F08050C86100BF207800F0010098
:103EB00038B14748006B20F00300A168084344492B
:103EC0000863207800F00200022807D14048006B08
:103ED00020F44030E16808433D490863207800F051
:103EE0000400042807D13A48006B20F440202169DF
:103EF000084337490863207800F02000202807D1C4
:103F00003348006B20F01000E16908433049086332
:103F1000206800F40030B0F5003F07D12C4840681D
:103F200020F48000216B084329494860207800F084
:103F30004000402807D12648006B20F02000216A6D
:103F4000084323490863207800F00800082807D1B7
:103F50001F48006B20F44010616908431C49086346
:103F6000207800F01000102807D11948006B20F4C9
:103F70004000A169084316490863208800F40070D6
:103F8000B0F5007F07D11248406820F40000A16A14
:103F900008430F494860207800F08000802807D14E
:103FA0000B48C06A20F4F870616A08430849C86287
:103FB000208800F48050B0F5805F07D10448006B82
:103FC00020F48070E16A0843014908630020E3E6B9
:103FD00000100240007000400000424270B50446EC
:103FE0000D4600260CB9012070BDA248006800F003
:103FF0000700A8420ED29F48006820F0070028431F
:104000009C4908600846006800F00700A84201D0FB
:104010000120E9E7207800F00200022807D1964845
:10402000406820F0F000A168084393494860207878
:1040300000F0010000287CD0606801283BD12020DE
:10404000010391FAA1F1B1FA81F108430121B1EB29
:10405000601F02D1884800681DE02020010391FA0A
:10406000A1F1B1FA81F108430221B1EB601F02D145
:104070008148006A0FE02020010391FAA1F1B1FA12
:1040800081F108430421B1EB601F02D17A484068F6
:1040900001E07948406A20210A0392FAA2F2B2FABA
:1040A00082F2114301F01F020121914008400028D3
:1040B0007CD1012098E7606802283BD120200105CF
:1040C00091FAA1F1B1FA81F108430121B1EB601F2E
:1040D00002D1694800681DE02020010591FAA1F194
:1040E000B1FA81F108430221B1EB601F02D16248AD
:1040F000006A0FE02020010591FAA1F1B1FA81F1E7
:1041000008430421B1EB601F02D15B48406801E025
:104110005948406A20210A0592FAA2F2B2FA82F2C4
:10412000114301F01F02012191400840E8BB01202A
:104130005AE758E02020022191FAA1F1B1FA81F169
:1041400008430121B1EB601F02D14B4800681DE01C
:104150002020022191FAA1F1B1FA81F10843022154
:10416000B1EB601F02D14448006A0FE02020022119
:1041700091FAA1F1B1FA81F108430421B1EB601F7A
:1041800002D13D48406801E03B48406A20210222BC
:1041900092FAA2F2B2FA82F2114301F01F02012157
:1041A0009140084008B901201EE7FFE73248406807
:1041B00020F00300616808432F494860FFF7C4FC02
:1041C000064608E0FFF7C0FC801B41F288318842B8
:1041D00001D9032008E72848406800F00C00616816
:1041E000B0EB810FEED12348006800F00700A84231
:1041F0000ED92048006820F0070028431D490860B8
:104200000846006800F00700A84201D00120EBE654
:10421000207800F00400042807D11748406820F4F3
:10422000E060E168084314494860207800F0080025
:10423000082808D11048406820F46050216940EAFD
:10424000C1000D49486000F04FF80B49496801F082
:10425000F001F02292FAA2F2B2FA82F2D140074AB9
:10426000515CC840064908600F20FFF793FC00200E
:10427000BAE60000002002400010024034C70008E7
:104280001000002001480068704700001000002066
:1042900000B5FFF7F7FF0749496801F4E0614FF403
:1042A000E06292FAA2F2B2FA82F2D140024A515C82
:1042B000C84000BD0010024044C7000800B5FFF729
:1042C000E1FF0749496801F460514FF4605292FAE6
:1042D000A2F2B2FA82F2D140024A515CC84000BD5B
:1042E0000010024044C7000870B5002100240022DD
:1042F000002300201A4D696801F00C0565B3042DF8
:1043000002D0082D27D101E0164827E001F47015EE
:104310004FF4701696FAA6F6B6FA86F6F540124EE7
:10432000735D0F4DED6A05F00F050F2696FAA6F6A0
:10433000B6FA86F6F5400D4E745D01F480352DB168
:10434000084DB5FBF4F505FB03F202E0084D03FB55
:1043500005F2104602E000BF024800BF00BF70BD7A
:104360000010024000127A0014C7000824C7000899
:1043700000093D00F8B504460CB90120F8BD2078CD
:1043800000F0010000287BD0FA48406800F00C00E3
:1043900004280CD0F748406800F00C00082845D1EC
:1043A000F448406800F48030B0F5803F3ED12020D2
:1043B000010391FAA1F1B1FA81F108430121B1EBB6
:1043C000601F02D1EB4800681DE02020010391FA34
:1043D000A1F1B1FA81F108430221B1EB601F02D1D2
:1043E000E448006A0FE02020010391FAA1F1B1FA3C
:1043F00081F108430421B1EB601F02D1DD48406820
:1044000001E0DC48406A20210A0392FAA2F2B2FAE3
:1044100082F2114301F01F0201219140084000285F
:10442000B1D0606800282BD10120A7E700BF6068E9
:10443000B0F5803F06D1CF48006840F48030CD49C8
:10444000086029E0606858B9CA48006820F48030E4
:10445000C84908600846006820F4802008601BE016
:104460006068B0F5A02F0CD1C248006840F48020ED
:10447000C04908600846006840F4803008600BE0DE
:10448000A1E0BC48006820F48030BA4908600846C2
:10449000006820F48020086000BFB648C06A20F0A1
:1044A0000F00A1680843B349C8626068A0B3FFF772
:1044B0004BFB054606E0FFF747FB401B642801D98C
:1044C00003205BE72020010391FAA1F1B1FA81F109
:1044D00008430121B1EB601F02D1A64800681EE02D
:1044E0002020010391FAA1F1B1FA81F108430221E0
:1044F000B1EB601F02D19F48006A10E02020010349
:1045000091FAA1F1B1FA81F108430421B1EB601FE6
:1045100003D19848406802E010E09648406A2021A4
:104520000A0392FAA2F2B2FA82F2114301F01F02D8
:104530000121914008400028BDD044E0FFF704FB72
:10454000054606E0FFF700FB401B642801D9032065
:1045500014E72020010391FAA1F1B1FA81F1084397
:104560000121B1EB601F02D1824800681DE02020CC
:10457000010391FAA1F1B1FA81F108430221B1EBF3
:10458000601F02D17B48006A0FE02020010391FAEE
:10459000A1F1B1FA81F108430421B1EB601F02D10E
:1045A0007448406801E07348406A20210A0392FA87
:1045B000A2F2B2FA82F2114301F01F0201219140EE
:1045C00008400028BED1207800F0020002285CD10B
:1045D0006848406800F00C0050B16648406800F040
:1045E0000C00082852D16348406800F48030E8BBD2
:1045F0002020022191FAA1F1B1FA81F108430121B1
:10460000B1EB601F02D15B4800681DE02020022151
:1046100091FAA1F1B1FA81F108430221B1EB601FD7
:1046200002D15448006A0FE02020022191FAA1F142
:10463000B1FA81F108430421B1EB601F02D14D486A
:10464000406801E04B48406A2021022292FAA2F21F
:10465000B2FA82F2114301F01F0201219140084099
:1046600028B12069012802D0012087E60EE04148E8
:10467000006820F0F800F82292FAA2F2B2FA82F270
:104680006169914008433B490860B1E0206970B31B
:10469000012191FAA1F0B0FA80F0374A42F82010D7
:1046A000FFF752FA054606E0FFF74EFA401B0228D4
:1046B00001D9032062E62020022191FAA1F1B1FA8A
:1046C00081F108430121B1EB601F02D12948006844
:1046D0001EE02020022191FAA1F1B1FA81F10843F4
:1046E0000221B1EB601F03D12248006A10E02CE0E8
:1046F0002020022191FAA1F1B1FA81F108430421AD
:10470000B1EB601F02D11B48406801E01948406AC4
:104710002021022292FAA2F2B2FA82F2114301F0AF
:104720001F020121914008400028BDD011480068B7
:1047300020F0F800F82292FAA2F2B2FA82F261694D
:10474000914008430B49086052E00020012191FA92
:10475000A1F1B1FA81F1084A42F82100FFF7F4F91A
:1047600005460BE0FFF7F0F9401B022806D90320AD
:1047700004E6000000100240000042422020022116
:1047800091FAA1F1B1FA81F108430121B1EB601F67
:1047900002D1FB4800681DE02020022191FAA1F11E
:1047A000B1FA81F108430221B1EB601F02D1F44854
:1047B000006A0FE02020022191FAA1F1B1FA81F103
:1047C00008430421B1EB601F02D1ED48406801E0CD
:1047D000EB48406A2021022292FAA2F2B2FA82F257
:1047E000114301F01F020121914008400028B9D176
:1047F000207800F00800082851D1A06980B301207A
:1048000090FAA0F1B1FA81F1DE4A02EB8101C1F820
:104810008004FFF799F9054606E0FFF795F9401B7C
:10482000022801D90320A9E56020022191FAA1F113
:10483000B1FA81F108430121B1EB601F02D1D048E8
:1048400000681EE06020022191FAA1F1B1FA81F125
:1048500008430221B1EB601F03D1C948006A10E090
:104860001EE06020022191FAA1F1B1FA81F1084322
:104870000421B1EB601F02D1C148406801E0C0488B
:10488000406A6021022292FAA2F2B2FA82F2114345
:1048900001F01F020121914008400028BDD04FE0E7
:1048A0000020012191FAA1F1B1FA81F1B54A02EBA0
:1048B0008101C1F88004FFF747F9054606E0FFF7DC
:1048C00043F9401B022801D9032057E5602002214B
:1048D00091FAA1F1B1FA81F108430121B1EB601F16
:1048E00002D1A74800681DE06020022191FAA1F1E1
:1048F000B1FA81F108430221B1EB601F02D1A04857
:10490000006A0FE06020022191FAA1F1B1FA81F171
:1049100008430421B1EB601F02D19948406801E0CF
:104920009748406A6021022292FAA2F2B2FA82F219
:10493000114301F01F020121914008400028BED11F
:10494000207800F00400042873D100268C48C06948
:1049500000F0805070B900BF8948C06940F08050B5
:104960008749C8610846C06900F08050009000BFC8
:1049700000BF01268448006800F48070B0B9824806
:10498000006840F4807080490860FFF7DDF8054654
:1049900006E0FFF7D9F8401B642801D90320EDE4B5
:1049A0007948006800F480700028F2D000BFE06809
:1049B000012806D17248006A40F00100704908627F
:1049C00027E0E06858B96E48006A20F001006C49A1
:1049D00008620846006A20F00400086219E0E068F6
:1049E00005280BD16648006A40F00400644908625B
:1049F0000846006A40F0010008620AE06048006A68
:104A000020F001005E4908620846006A20F00400B8
:104A1000086200BFE068B8B3FFF796F8054609E002
:104A2000FFF792F8401B41F28831884202D90320F7
:104A3000A4E48BE04020022191FAA1F1B1FA81F1C6
:104A400008430121B1EB601F02D14D4800681EE010
:104A50004020022191FAA1F1B1FA81F1084302212B
:104A6000B1EB601F02D14648006A10E040200221ED
:104A700091FAA1F1B1FA81F108430421B1EB601F71
:104A800003D13F48406802E010E03D48406A4021C1
:104A9000022292FAA2F2B2FA82F2114301F01F024C
:104AA0000121914008400028BAD046E0FFF74CF8B9
:104AB000054608E0FFF748F8401B41F2883188427C
:104AC00001D903205AE44020022191FAA1F1B1FA60
:104AD00081F108430121B1EB601F02D12848006831
:104AE0001DE04020022191FAA1F1B1FA81F10843C1
:104AF0000221B1EB601F02D12148006A0FE0402083
:104B0000022191FAA1F1B1FA81F108430421B1EB3C
:104B1000601F02D11A48406801E01948406A4021EC
:104B2000022292FAA2F2B2FA82F2114301F01F02BB
:104B30000121914008400028BCD1012E05D1104828
:104B4000C06920F080500E49C86100BFE0690028AC
:104B500074D00B48406800F00C0008286FD0E06962
:104B600002286DD100204FF0807191FAA1F1B1FAC5
:104B700081F1044A42F82100FEF7E6FF05460CE009
:104B8000001002400000424200700040FEF7DCFFCF
:104B9000401B022801D9032047E42020010591FA97
:104BA000A1F1B1FA81F108430121B1EB601F02D1FB
:104BB0006F4800681DE02020010591FAA1F1B1FACB
:104BC00081F108430221B1EB601F02D16848006AFD
:104BD0000FE02020010591FAA1F1B1FA81F108431B
:104BE0000421B1EB601F02D16148406801E06048D8
:104BF000406A20210A0592FAA2F2B2FA82F2114327
:104C000001F01F020121914008400028BED1D4E9E3
:104C1000081008435649496821F47411084354495F
:104C200048600121080690FAA0F0B0FA80F0514ADD
:104C300042F82010FEF788FF054609E095E092E073
:104C400041E0FEF781FF401B022801D9032038E430
:104C50002020010591FAA1F1B1FA81F10843012167
:104C6000B1EB601F02D1424800681DE02020010521
:104C700091FAA1F1B1FA81F108430221B1EB601F71
:104C800002D13B48006A0FE02020010591FAA1F112
:104C9000B1FA81F108430421B1EB601F02D134481D
:104CA000406801E03248406A20210A0592FAA2F2E7
:104CB000B2FA82F2114301F01F0201219140084033
:104CC0000028BED051E000214FF0807090FAA0F093
:104CD000B0FA80F0274A42F82010FEF735FF05466B
:104CE00006E0FEF731FF401B022801D903202FE424
:104CF0002020010591FAA1F1B1FA81F108430121C7
:104D0000B1EB601F02D11A4800681DE020200105A8
:104D100091FAA1F1B1FA81F108430221B1EB601FD0
:104D200002D11348006A0FE02020010591FAA1F199
:104D3000B1FA81F108430421B1EB601F02D10C48A4
:104D4000406801E00A48406A20210A0592FAA2F26E
:104D5000B2FA82F2114301F01F0201219140084092
:104D60000028BED101E001207FE400207DE40000A6
:104D7000001002400000424270B504460CB9012008
:104D800070BD606A00B900BF0021A16294F85D00A7
:104D900028B9002084F85C00204600F053F8022077
:104DA00084F85D002068006820F0400021680860F9
:104DB000E068B0F5E06F01D9002501E04FF48055BF
:104DC000E068B0F5706F05D0E068B0F5E06F01D035
:104DD0000021A162206B40B9E068B0F5E06F02D914
:104DE0000221216301E001212163D4E9010108438B
:104DF0002169084361690843218B01F4007108436C
:104E0000E1690843216A0843A16A084321680860F0
:104E10000421A06901EA1040616A0843616B0843FC
:104E2000E16808432843216848602068C06920F48D
:104E300000602168C86100202066012084F85D00C0
:104E400000209DE710B586B00446224920688842BC
:104E50001DD100BF2048C06940F480401E49C86190
:104E60000846C06900F48040009000BF00BF4FF4C6
:104E70002040019002200290002003900320049023
:104E80000520059001A91548FEF772FD1FE01449A1
:104E9000206888421BD100BF0F48C06940F4004021
:104EA0000D49C8610846C06900F40040009000BF89
:104EB00000BF3820019002200290002003900320C0
:104EC00004900620059001A90448FEF751FD06B0A4
:104ED00010BD0000003800400010024000040048EF
:104EE000003C00402DE9F84304460E4617461D4697
:104EF0004FF00008C1466068B0F5827F0DD1A06810
:104F000058B9042084F85D003B46324631462046BD
:104F1000009500F08AF9BDE8F88300BF94F85C00C2
:104F2000012801D10220F6E7012084F85C0000BFCF
:104F3000FEF70AFE804694F85D00012802D04FF08B
:104F400002098CE006B117B94FF0010987E004208F
:104F500084F85D00002020662664A4F84470A4F85C
:104F60004670A063A087E087E0642065E068B0F544
:104F7000E06F06D92068406820F4805021684860BE
:104F800005E02068406840F4805021684860A068CF
:104F9000B0F5004F05D12068006820F480402168FA
:104FA00008602068006800F04000402805D02068B4
:104FB000006840F0400021680860E068B0F5E06FEC
:104FC00020D81AE02068806800F0010048B120680D
:104FD000007B3070761CB4F84600401EA4F84600F2
:104FE0000BE03DB1681C40B1FEF7AEFDA0EB080040
:104FF000A84202D34FF0030931E0B4F8460000287C
:10500000E0D11FE01AE02068806800F0010048B19C
:105010002068C0683080B61CB4F84600401EA4F872
:1050200046000BE03DB1681C40B1FEF78DFDA0EBE2
:105030000800A84202D34FF0030910E0B4F846007C
:105040000028E0D142462946204603F0A6F808B1E0
:1050500020202066206E08B14FF0010900BF01201A
:1050600084F85D0000BF002084F85C0000BF484663
:1050700051E72DE9F84304460D4617461E464FF00A
:105080000008C14600BF94F85C00012802D102204C
:10509000BDE8F883012084F85C0000BFFEF754FDF2
:1050A000804694F85D00012802D04FF00209B2E07A
:1050B00005B117B94FF00109ADE0032084F85D0098
:1050C00000202066A563A787E7872064A4F8440032
:1050D000A4F846002065E064A068B0F5004F05D153
:1050E0002068006840F480402168086020680068FB
:1050F00000F04000402805D02068006840F04000E3
:1051000021680860E068B0F5E06F2AD9606810B1E6
:10511000E08F012806D128882168C860AD1CE08F87
:10512000401EE08719E02068806800F00200022835
:1051300007D128882168C860AD1CE08F401EE08739
:105140000BE03EB1701C40B1FEF7FEFCA0EB080086
:10515000B04202D34FF003095DE0E08F0028E2D1B6
:105160003FE0606810B1E08F012811D1E08F012885
:1051700007D928882168C860AD1CE08F801EE087B1
:1051800006E015F8010B21680873E08F401EE087E8
:1051900024E02068806800F00200022812D1E08F2D
:1051A000012807D928882168C860AD1CE08F801EBF
:1051B000E08713E015F8010B21680873E08F401EAB
:1051C000E0870BE03EB1701C40B1FEF7BDFCA0EBE8
:1051D0000800B04202D34FF003091CE0E08F002822
:1051E000D7D142463146204603F018F808B12020B6
:1051F0002066A06850B900BF002000902068C068F9
:10520000009020688068009000BF00BF206E08B149
:105210004FF0010900BF012084F85D0000BF0020AD
:1052200084F85C0000BF484632E72DE9FC5F044685
:105230000D4616461F46DDF830804FF0000A00206C
:10524000019081464FF0010B009000BF94F85C0084
:10525000012802D10220BDE8FC9F012084F85C00F7
:1052600000BFFEF771FC814694F85DA06068019074
:10527000BAF1010F0BD00198B0F5827F04D1A0687C
:1052800010B9BAF1040F02D00220009007E10DB16D
:1052900006B117B90120009001E194F85D000428DF
:1052A00002D0052084F85D00002020662664A4F862
:1052B0004670A4F84470A563E787A787E06420657B
:1052C000E068B0F5E06F03D8B4F84600012806D9CD
:1052D0002068406820F480502168486005E020681C
:1052E000406840F48050216848602068006800F001
:1052F0004000402805D02068006840F04000216848
:105300000860E068B0F5E06F47D9606810B1E08FE1
:10531000012806D128882168C860AD1CE08F401E96
:10532000E08732E0BBF1000F10D0E08F70B1206851
:10533000806800F00200022808D128882168C8602F
:10534000AD1CE08F401EE0874FF0000BB4F8460024
:1053500078B12068806800F0010050B12068C06812
:105360003080B61CB4F84600401EA4F846004FF04A
:10537000010B08F1010040B1FEF7E6FBA0EB0900CC
:10538000404502D30320009089E0E08F0028C9D176
:10539000B4F846000028C5D174E0606810B1E08F11
:1053A000012811D1E08F012807D928882168C86019
:1053B000AD1CE08F801EE08706E015F8010B216828
:1053C0000873E08F401EE08755E0BBF1000F1BD053
:1053D000E08FC8B12068806800F00200022813D175
:1053E000E08F012807D928882168C860AD1CE08FAC
:1053F000801EE08706E015F8010B21680873E08F36
:10540000401EE0874FF0000BB4F8460038B3206828
:10541000806800F0010010B3B4F84600012813D9E9
:105420002068C0683080B61CB4F84600801EA4F81E
:105430004600B4F8460001280FD82068406840F4C0
:1054400080502168486008E02068007B06F8010B66
:10545000B4F84600401EA4F846004FF0010B08F1D6
:10546000010040B1FEF770FBA0EB0900404502D3FC
:105470000320009013E0E08F0028A6D1B4F8460086
:105480000028A2D14A464146204602F0C7FE08B194
:1054900020202066206E08B10120009000BF01206E
:1054A00084F85D0000BF002084F85C0000BF009815
:1054B000D1E6042808D14FF0E021096941F0040148
:1054C0004FF0E022116107E04FF0E021096921F07F
:1054D00004014FF0E0221161704770B50446254683
:1054E000681EB0F1807F01D301200FE0681E4FF0ED
:1054F000E02148610F214FF0FF3002F05DF90020FC
:105500004FF0E021886107200861002070BD7047DE
:105510007047704710B50346002200BF93F83C0067
:10552000012801D1022010BD012083F83C0000BFFA
:1055300022F0FF00CC6840EA040222F440708C683C
:1055400040EA040222F480604C6840EA040222F43B
:1055500000600C6840EA040222F480500C6940EAC2
:10556000040222F400504C6940EA040222F4804014
:105570008C6A40EA040222F400408C6A40EA040289
:1055800022F470200C8B40EA04420E4C1868A042B2
:105590000ED122F470008C8C40EA045222F080700C
:1055A000CC6940EA040222F000700C6A40EA04026E
:1055B0001868426400BF002083F83C0000BF00BFB1
:1055C000B1E70000002C014030B502460B4600BF99
:1055D00092F83C00012801D1022030BD012082F860
:1055E0003C0000BF10684168106884680D4D106869
:1055F000A84203D121F470015868014321F07001E1
:105600001868014324F080049868044310684160DE
:105610001068846000BF002082F83C0000BF00BF1B
:10562000DBE70000002C014010B504460CB9012056
:1056300010BD94F83D0028B9002084F83C002046B5
:1056400000F00CF8022084F83D00211D206803F0D2
:1056500007FB012084F83D000020E9E738B5044647
:105660000D492068884215D100BF0C48C06940F040
:1056700010000A49C8610846C06900F01000009097
:1056800000BF00BF002205213620FEF7FEFA3620BB
:10569000FEF7EEFA38BD0000001000400010024096
:1056A00001460868C06840F001000A68D0600868D8
:1056B000006840F001000A681060002070477047E1
:1056C00010B5044620680069C0F34000D8B12068D6
:1056D000C068C0F34000B0B16FF0020021680861FB
:1056E000012020772068806900F0030018B120466F
:1056F000FFF7E5FF05E0204600F000F9204600F046
:1057000011FA0020207720680069C0F38000D8B12A
:105710002068C068C0F38000B0B16FF00400216859
:105720000861022020772068806900F4407018B179
:105730002046FFF7C4FF05E0204600F0DFF82046D2
:1057400000F0F0F90020207720680069C0F3C00065
:10575000D8B12068C068C0F3C000B0B16FF00800D5
:1057600021680861042020772068C06900F00300E8
:1057700018B12046FFF7A3FF05E0204600F0BEF871
:10578000204600F0CFF90020207720680069C0F3A0
:105790000010D8B12068C068C0F30010B0B16FF03D
:1057A000100021680861082020772068C06900F493
:1057B000407018B12046FFF782FF05E0204600F058
:1057C0009DF8204600F0AEF900202077206800699F
:1057D00000F0010058B12068C06800F0010030B14D
:1057E0006FF0010021680861204600F0CFF92068C1
:1057F0000069C0F3C01058B12068C068C0F3C01081
:1058000030B16FF08000216808612046FFF780FE0C
:1058100020680069C0F3002058B12068C068C0F358
:10582000C01030B16FF48070216808612046FFF726
:105830006EFE20680069C0F3801058B12068C0680F
:10584000C0F3801030B16FF040002168086120463D
:1058500000F0F4F920680069C0F3401058B12068E6
:10586000C068C0F3401030B16FF0200021680861BB
:105870002046FFF74EFE10BD10B586B004461C4909
:10588000206888420ED180150190022002900020ED
:10589000039004900620059001A94FF09040FEF778
:1058A00067F823E02068B0F1804F0ED1032001900B
:1058B000022002900020039004900120059001A98D
:1058C0004FF09040FEF754F810E00A4920688842F3
:1058D0000CD18020019002200290002003900490BF
:1058E0000A20059001A90448FEF742F806B010BD51
:1058F000002C01400004004000040048704770B5CF
:1059000004460D46164600BF94F83C00012801D11C
:10591000022070BD012084F83C0000BF022084F802
:105920003D000C2E51D005DC4EB1042E1ED0082EA9
:105930007AD133E0102E60D0142EF9D175E02946CB
:10594000206803F0EFF92068806940F008002168C2
:1059500088612068806920F00400216888612068DF
:105960008069296908432168886177E029462068B1
:1059700003F028FA2068806940F40060216888619B
:105980002068806920F480602168886120688069CF
:10599000296940EA0120216888615FE02946206882
:1059A00003F064FA2068C06940F008002168C8610B
:1059B0002068C06920F004002168C8612068C069BF
:1059C000296908432168C86148E02946206803F036
:1059D000A1FA2068C06940F400602168C8612068AD
:1059E000C06920F480602168C8612068C0692969A5
:1059F00040EA01202168C86130E02946206803F0B0
:105A0000C1FA2068406D40F00800216848652068B0
:105A1000406D20F00400216848652068406D2969C8
:105A200008432168486519E017E02946206803F01B
:105A3000DFFA2068406D40F4006021684865206806
:105A4000406D20F48060216848652068406D2969B8
:105A500040EA01202168486500E000BF00BF012046
:105A600084F83D0000BF002084F83C0000BF00BF68
:105A70004FE710B504460CB9012010BD94F83D0065
:105A800028B9002084F83C00204600F00DF80220E0
:105A900084F83D00211D206803F0E2F8012084F81D
:105AA0003D000020E9E7000008B51B4A016891426B
:105AB0000DD100BF1949896941F40061174A91610C
:105AC0001146896901F40061009100BF23E001687B
:105AD000B1F1804F0DD100BF1049C96941F00101FA
